:400000000008002011000000DD0F0000DD0F000008B502F08BFB00F0E9FF000010B572B6EE22234B12021A60EE22224B224C1A60224B04321A60224B01321A600C23214A73
:4000400018201360204A13600222204B1A60DB221F4B12011A6003221E4B1A601E4B21321A601E4B203A1A601223236002F020FAFE2280211A4B12021A601A4B1A4A4900F6
:400080001A601A4A01201160194A1A600022194B1A60194B40321A60184B01321A6011232360174B313A1A6000F0E8FF10BDC046000302400004024030001040000004409C
:4000C0001800044000010440180104400003044008030440000404400804044018040440000301400000014040FF00800403014041FF008028000340080101400001014031
:40010000C0020B4010B5064C2378002B07D1054B002B02D0044800E000BF0123237010BD18010020000000003C2B000008B5084B002B03D00748084900E000BF074803689A
:40014000002B00D108BD064B002BFBD09847F9E7000000003C2B00001C010020880000200000000008B500F039F800F0E7F800F0CDFA00F005FFF8E708B502F0F5FA11483E
:4001800000F07BFD002801D100F018FF0E4A1368013313600D4A13680133136000230C49CA5C0132D2B2CA540A49CA5C0132D2B2CA540949CA5C0132D2B2CA540133042B72
:4001C000EDD108BD3E0200207C0100206C01002062010020660100205E010020F0B5A1B072B68021454A464D136809040B431360281C002100F03AFD4248434900F038FD78
:400200004248012100F034FD4148A62100F030FD4048002100F02AFD3F48012100F026FD62B601F099F901F097F900F005FD68460021802202F079FC0023FE22694692019D
:400240009A181278CA540133802BF6D1481C082100F070FC6B461B78E32B03D16B465B7A834206D0FF23AB7100F088FC0023AB7108E000246B46E0B20134195D00F0D8F8A3
:40028000082CF7D100F0DEF91924013CE4B200F01BFA002CF9D101F0ABFA00F057FC01F00FFB72B600F0ACF91C4EE7B2381C00F049F9011C301C00F0DBFC381C00F034F9B5
:4002C000011C301C0134103000F0D2FC0236042CEBD162B651212A1C972000F083FF00F0F7FE02F049FA0E4802F068FA0020732100F02EFE02F048FA21B0F0BD00000340BC
:400300003E020020910200207714000093020020950200209802002097020020680200207901000008B5002001F0AAFE0A2002F01DF9012001F0A4FE08BD000070B5294885
:4003400000F09BFC3D2801D102F02EF8264C201C00F093FC061E012E2BD102F04AFA051C00F02EFF83060FD401F034F900F0BEFE02F014F900F0BEFE01F02DF9281C02F089
:400380003CFA1A4B1E7002E0281C02F036FA201C00F073FC01280CD000F096F901F028FA00F0D4FB01F08CFA732000F0B9FD00F005FE00F0DBF80E4800F05FFC002801D0DB
:4003C00000F05AFB0B4C201C00F057FC3E2807D100F0C6F800F0D2FB201C002100F046FC70BDC0463F0200203E0200208C000020460200204502002010B5041C034800F01B
:400400003CFC0123A3401840C0B210BD4402002072B662B6044B1A5C1C235343034AD3189B68587A7047C046402B0000202C000072B6054B1A5C1C235343044AD3189B6826
:40044000597262B67047C046402B0000202C00001F4BF0B51D5C1C236B431E4A85B0D3185B68029018880123834032200024013B5843642102F092FA7F27231C0390E21989
:4004800052100192934221D06B461E790298311CFFF7CEFF281C002101F082FD01F07EFC01F018FA002802D002F06AF8F8E71C236B43084AD3189B68039A1B88934201D309
:4004C000341C00E0371C019BBC42D8D105B0F0BD402B0000202C000082B072B6064B1B5C01931C23019A5343044AD3185B6862B6987AC0B202B07047402B0000202C00003F
:4005000082B072B6064B1B5C01931C23019A5343044AD3185B68997262B602B07047C046402B0000202C0000044B1A5C1C235343034AD3185B6858887047C046402B0000B3
:40054000202C0000044B1A5C1C235343034AD3185B68D8897047C046402B0000202C00000022014B1A70704734010020F7B572B600251F4E1F4F301C3B1C0833EC5C00F0D7
:400580007FFB1C223B5D53431B4AD3185B6801935B8883420ED0201C184B1C304000C018023000F06DFB1C22EB5D5343124AD3185B685880301C103800F062FB019BDB89BC
:4005C00083420ED00D48143464002018023000F057FB084BEA5C1C235343074AD3185B68D88101350236042DC4D162B6F7BDC04678020020402B0000202C00003E0200202E
:4006000070B572B600240D4B0833E65C301CFFF763FF011C201C0A4D0A30401900F026FB301CFFF7F5FE011C201C1A304019013400F01CFB042CE6D162B670BD402B000078
:400640003E020020F8B50026114B55201A1C0832B55C64215A5D1C2353430E4A6D00D3185B680D4F1C880123A3401C1C013CA4B2604302F093F9094B6421E8521420604394
:4006800002F08CF912370136E853042EDCD1F8BD402B0000202C0000340100203601002008B5084B00211818027A985C01F078FC01F074FB01F00EF9002802D001F060FF39
:4006C000F8E708BD402B000008B50F4B1A78012A0CD00020FFF7E4FF0120FFF7E1FF0220FFF7DEFF0320FFF7DBFF08BD0021081C197001F055FC01F051FB01F0EBF8002855
:40070000E7D001F03DFFF8E78C000020F0B5C44B85B01C78E4B2002C00D0ABE1251CFFF7D3FF0194BF4F00213B1C0833EE5CBC5D201C00F0ABFA0021201C00F0F5FABA49DD
:40074000AB00C850021C0021201C00F00DFB201C00F022FFEBB2181C0393FFF74DFE029700282CD0201C002101F01CF8002826D11C236343AD4A7100D3189F68AC4B3A8818
:40078000981C085A904203D91233CB5A934216D3301CFFF75DFE1926013E0398F6B2FFF77FFF002EF8D101F023F83A88201C311C00F098FA201C01F06FF8FFF721FF994B1D
:4007C000EA5C1C235343994AD3189B68DB88002B01D0012301930135042DA3D10024E0B2FFF70AFE002800D181E01C21029B029A0833E35CD65C8D4B71438B4A5918A30076
:40080000D3588F689AB20392FA88002A2DD0884865002230285A039D854226D2854D01352A5D012A02D0022A10D02CE0804A2A32115D062919D89BB2C01A2C23FF339842CA
:4008400021DD00231355023363551CE09BB2C01A2C23FF33984208DD754A2A32135D102B11D9097E381C00F0FDFF714B68461A1C808922326100885200222A331A556D4B4A
:4008800001329B18E254301C002100F08BFF684D002811D1FB88002B0ED02B1C2E331A5D142A0DD918551C237343604A381CD318197E00F0D7FF03E02B1C00222E331A55E3
:4008C000301C002100F06EFF323501280DD12B5D552B0CD900232B551C335E43534B381C9E19317E00F0BEFF01E000232B550134042C00D073E772B600244F4DE0B2FFF7B8
:400900007BFD2F1C061C203700280DD0029B281C1A5D1C235343454AD3189E68318800F0A7F9F188381C05E0281C311C00F0A0F9381C311C013400F09BF90235042CDDD145
:400940000027384BF8B21A1C0832BE5C9D5DFFF753FD7600394C002822D0281C002100F021FF051E012D10D0002819D0032817D8201C00F082F90323011CB3409943022395
:40098000B3401E1C0E43F1B211E0201C00F075F90323011CB340B54099432943C9B206E00325201C00F069F9B540A843C1B2201C013700F05BF9042FC3D1201C00F05DF9AD
:4009C0001B4D2B78834201D0FFF7ACFC201C00F054F9287062B6174B5A791C1C012A02D0022A0FD02CE0019B002B02D00023AB6326E0AB6B2A2B23D90223C820637100F006
:400A00008FFA1DE00022AA63019A002A18D0012273205A7100F084FA00F0D0FA2AE0C0463E020020402B0000E4010020202C0000340100208C000020990200208F02002012
:400A400001F0D7FE051C00F0BBFB83060FD400F0C1FD00F04BFB01F0A1FD00F04BFB00F0BAFD281C01F0C9FE0123237002E0281C01F0C3FE05B0F0BDF7B500240190019B43
:400A80002341DB0742D5264F201C3B1C0833E65C2449BB5D72000093032393401A1C224D0B780A30934340190B7000F0E6F8011C301CFFF725FD201C1A30401900F0DDF8D2
:400AC000011C301CFFF7B4FC1925013DE0B2EDB2FFF7E6FD002DF8D1BB5D1C267343134A291CD3189B6800981A8800F0FBF8009800F0D2FE0C4B60005B30C0183B5D5E4303
:400B00000A4B9E19B368198800F0B2F8013400F06FFE042CB3D10648002100F0A7F8F7BD402B0000340100203E020020202C00004602002000234118884204D002780130C2
:400B40009B18DBB2F8E75842C0B2704710B500241C236343084A201C9B189B6800211A8800F0C0F8201C013400F096FE092CEFD1062000F0B1F810BD202C0000002010B56F
:400B8000011CA0B001F00CFA01F008F900F0A2FE002802D001F0F4FCF8E7041CE0B2FFF72BFC002804D0194B0833E05CFFF750FC0134042CF2D11534013CFFF785FD002C5B
:400BC000FAD100F015FEFFF7C1FF00F079FEFFF717FD80226846211C01F0A7FFE3236A4613700134601EC0B2FFF712FC6B461855082CF6D1211C581CFFF79CFF6B466946BF
:400C000058727F2001F0F2FA20B010BD402B0000074A084B11680B40012802D18021490403E0022802D1C02189040B4313607047C0010B40FFFFFFFC09490A4810B5026876
:400C4000094B0C681A4023409E24E40322438A242404234302600B600120FFF7D9FF10BDC4010B40C0010B40FFFF30FF01707047CBB2090A0370417070470078C0B270479F
:400C80000378407800021843704700001C2343430E4AF0B5D3189B684A000D4F09189A184E000C4D1488F35B705B9C4202D9261C1C1C331C4900785216886E52834200D9D7
:400CC000031CA34200D2231C1380F0BD202C00000C030020D6020020014B18707047C04692000020062370B50C186343094E95B29D53F3185D809D80074BD20118180023C6
:400D00004354064963005D520549A4005D52054BE25070BD08020020D80100200C030020D6020020E8020020F0B506240B185C430B4D49002A19675B56889388F719FF18C0
:400D40001C235843074B1818836859180B886653F8189388800853800B889380F0BDC04608020020202C00001C23F0B5434389B001915449041CCB1859689B680291019954
:400D8000019D49005B18504900938C4601991B88091860460491890009584C480019405D06AD07352870009847882878D61BC0B20390604605900398052871D801F0E4FD6C
:400DC00003071A2D4750009BD1015A8068E0404ADB01107801228240013A51435B18C340191C002E5EDB3B4B6200D35A02229E4251D857E0374A6000825A964250DDDB01B1
:400E00005B1859081B0ADF1B029A029B92795B889B1803229F423EDA44E02D4ADB01107801228240013A51435B18C340191C2A4B6200D05A06AB0733864201DB042204E0CF
:400E40002648125A96422DDA05221A702AE0224A6000825A964221DBDB015918490821E01E4A6000825A964218DACA09D8019A4202D94118490807E0154B1A780123934098
:400E8000013B59434118D140CB09DF1B029B1B799F4207DC012206ABDA7103E0032300E001232B70049B059A9B00D150074A06AB07331B781419019AC909A354009B1980D8
:400EC00009B0F0BD202C0000E8020020D801002092000020702B00004C2B00005E2B0000002337B5051C019301F070FBFA230A249B005D43281C01A901F096FB002803D1DE
:400F0000064B019A1A6005E00120013C01F058FA002CEFD101F074FB37BDC0467001002010B5084C0A2160602368584301F036FD054B18606168054801F030FD0023A06081
:400F4000E36010BD700100209400002060EA000038B50D1C041C0A20FFF7C2FF281CFFF7DFFF01F0F5FB054B1B68C01801F0E6FB002C01D001F0D4FB38BDC04694000020D9
:400F800010B50C4CE268A3689A4212D30023E36001F0F2FB0A20FFF7A3FF6068FFF7C0FF01F0DCFB044B1B68C01801F0C7FB01F0EBFB10BD700100209400002008B501F0BF
:400FC000DBFB01F0CBFB044B1B68C01801F0B6FB01F0DAFB08BDC0469400002008B501F06FFD03680C2B00D1FEE7FEE770B51049104B01394A1C15D000221E685C689D68AD
:40100000A018AA4203D0B058A0500432F8E7021CDC68151AA54202D0002520C2F9E710330139E7E701F052FDFFF79CF8FEE7C04601000000B02E000008B500239A000A494F
:40104000032B01D809498958094801338150202BF4D1FEF7E3FF0022064B1A608022064B92051A6008BDC046DD0F000000000000000000208000002008ED00E00B4A10B5A2
:401080001368002803D0802109060B4301E05B005B081360064B202419680A1CA243002801D0221C0A431A6010BDC04600200240280003408021054A08B5136809060B4366
:4010C0001360072001F052F908BDC0460000084010B5054C2378002B03D100F00FF801232370FFF7E7FF10BD8001002008B500F091F808BD08B500F097F808BD802210B5FC
:4011000000241A4B52001A60194A1A4B1A491A601A4B1B4A072013601A4A14601A4A11601A4A13601A4B1C6001F02AF90720032101F004F91749072001F0F8F85222164B62
:40114000FF321C60154B1C60154B1A60154B1C60154B1C60154B1C60154B1C70154B1C70154B1C80154B1C7010BDC0460000084000080040600008403A00FE0007010080ED
:4011800000030840040308401003084000020840040208403D120000C80E0840880E0840480F0840080F0840C80F0840880F08402403002028030020220300202003002041
:4011C00010B5072001F0DCF81F21054B07201C781A78E4B28A431A7001F0C8F8201C10BD2803002070B5061C0D1C141E0BD0072001F0C6F8044B07201C60044B1E80044BEE
:401200001D8001F0B3F870BD2C030020300300202603002008B500F04DFF0122014B1A6008BDC046880E0840002208B5024BFF201A6000F031FF08BD880E0840F0B59E4BBC
:4012400087B01B68002B00D0984702229B489C4E04689C49FF320D68338822400396029004912DD0202498490A68520052080A60964A1078A04310701078103C20431070E9
:4012800093480568254206D1924C24789C4206D01478082501E0022514782C4314708E4C8E4A25682A40226000228D4C226002608C48027080200A68000602430A60F7E04C
:4012C000E90601D588490A600A22154200D185E0864A1268520744D5854A824811680278002A10D0012A3AD1824F834E3888002833D03260814AC9B212680138D21811702A
:40130000013338802BE07E4E37887B4EB94224D2012333607B4B1B88994201D25A1A92B2744B1A80072A02D80123037011E06A4B6B48082A06D1A0261A68360232431A601F
:40134000002305E080261A68B60132431A6008230360604B19700B1C01E00222326004213AE05D4802680190920437D50221294008D0654A11681F2206680A405749314000
:40138000016007E05B4E3288083A92B23280082A01D908220121161CD718B81B8446002E0DD0564F013E3F68381C6F46604400904F480068F875F87D009F3870ECE73B1C0F
:4013C000002908D18026019A01981268360232430260434A11600C214C4A11600222154247D0E10613D500213D48016038480160384909788B4200D00832344922400878D5
:401400000243202082430A700021364A117062062DD5202110202D4A13780B4313703C4A2C4B12681B78024211D08025344A314912886D02D21A0A80364A116829431160F7
:401440001568354929401160214A106002E00421234A116001211025304A02981160304A0260304802682A430260234A1160029A1460049A126852071AD5204A1D491468D4
:401480000A88294D002A07D0E0180078013AC0B22860013392B201E0FF202860234805681F2028400828ECD10A801021204A1160039A138007B0F0BD84010020400F0840AC
:4014C00022030020000E08400000084028030020880F08402003002060000840FF5FFFFFC80F084024030020880E0840CC0F084040030840880100206C0008402C030020FA
:40150000300300202603002008030840C00F08406400084004020840FFFFFEFF800E0840FF0F0000480F08404002084008020840800F084010B5074C2378002B05D100F0D6
:40154000F5F800F04BF90123237000F045F800F05FFA10BD8A01002038B5FFF7EBFF041E13D100F0E7F9041E0FD101F042F9051C00F0B0F9002805D001F002F8281C01F0FD
:401580003CF9F2E7281C01F038F900F031F900F097F9201C38BD000070B50126082812D80A4B1036DB68C340DB070CD51C254543074B041CED18281C00F03EF8291C061CD1
:4015C000201C00F093F8301C70BDC04634030020202C00007047704700220E4B70B51A610D4C013A0D4D0E4EDA60B54210D00021227D23682970062A07D1E068884204D05C
:40160000628AD979520001F090FA1C34013DECE770BDC04634030020242C000050030020470300204A880B889B1A0022CA800279934200DDCB807047F0B50025061C2F1C9B
:40164000836885B0029343680193037E03930A246C43029B1C19F38A9D420BD2211C039A019800F0C6F8211C071C0198FFF7DAFF0135ECE7381C05B0F0BD0000F7B5CA8ACF
:401680000B6952009A18019201228F684D6801998B4227D0F988144C8C466988224201D1E9890A37041CAE79144003D189198C4503D80DE0891B8C4503D9A24208D0141C7E
:4016C00000E0002419780139C9B21970002906D1904320430121002C00D1E979197001335200D4E7FEBDC0465555555538B50E4C051C2318187D0B7E062B01D1FFF7BEFF0A
:401700001F220121631918756B0915400A1C04339B00AA40E158002802D191430A1C00E00A43E25038BDC046340300208A22F8B5184C0021201C520001F0F7F9164B201CC9
:401740002380B0235B006380593BFF3BE383631C124C0222211CDA770A318E32223001F0DBF90F4B1A1C2133FF33191C231C24328A420DD0D6891D1C301C1468013804D3E7
:401780002F78013567720A34F8E79B191C32EFE7F8BDC04634030020584E0000842B0000042C0000021C10B50020082A11D81C235343084CE3185C8EA1420AD234331B7802
:4017C000062B06D1044849008218137D0320CB40184010BD042C0000340300200023024A9380024A1360704734030020A00100207047F0B50B884C88A34205D24679E51AFB
:40180000B5421DD8002603E000261D1B0E7201360779BD420ED8D2B2062A21D10A7924021443FF2254431B02E3181A0A1B0C4B800A7115E04079854212D2002EEBD00FE001
:401840000C7A007AA04202D901340C7208E0D2B20020062A02D04B80087201E00871FAE70020F0BDC9B2062901D1002303710388438000230372704708B51C230A225843AA
:40188000044B51431B189A685018197EFFF7EAFF08BDC046202C000038B51C23041C4343064AD318DB8A5D1E002B05D0201C291CFFF7E2FF2B1CF6E738BDC046202C00006B
:4018C00010B50924013C03D3201CFFF7E5FFF9E710BD0000024B9868802318407047C0463403002010B58024094A640293681C401123002C09D1103B082806D8D268C2407C
:401900001A4202D000F024FB231C181C10BDC04634030020064B10B59C6880235B021C401120002C02D100F08FFA201C10BDC046340300200C4B10B59C68802311201C40F8
:4019400011D1201CFFF7CEFF002809D1074B082C02D001221A7000E01870FFF7DBFF02E00134092CEDD110BD34030020A401002010B5114C63780133DBB263706078C0B279
:40198000FFF7B0FF6378002805D1082B00D12070FFF7C0FF0FE0094A0006082B05D19168074B0B401843906005E093681B021B0A18439060DDE710BDA40100203403002014
:4019C0007FFFFF00064A074B01381A60064A000210601A68002AFCDB044A024B1A60704740000040000001400003014040FF008009221C235B42534304490133FF33CB58CD
:401A00000621013A1973002AF3D17047202C000008B5FFF7EDFF00F033F8002008BD0000F7B5144C002623680193A37D9E421BD2A38A5B0710D500272368B5005D19AB7876
:401A40009F420FD21C232888381858430A4B0137C01800F02FFAF2E71C207043019B181800F028FA0136E0E7044B1C349C42D9D1F7BDC046202C0000202D00001C2D0000E5
:401A800070B5FFF7CDFF00231021334A334C1360334A344E1360344A1160344A34491360344A13600B6034490B6034490B6034490B603449344B08680340C020C000034304
:401AC00080200B60314940010B6803430B6001212F4B30481960036876182343036080202D4B400518602D482D4B18602D482E4B186011602D4B2E4A1A60C1222D4B520481
:401B00001A60F07FFFF75EFF70232B4CF17F25682A489D4300F042FF294A231C904201D8202200E0302215431D601B68254A48201343254A136000F053FE0F22234B1A604D
:401B40000022234B1A60234B0A321A60C022224B12031A6070BDC046F4000B4001000010B4020B4034030020C0020B4020030B4088020B4084010B4080020B4084020B40C0
:401B800080010B4000040240FFF0FFFF94020B40A0020B40A8020B40A4020B401100800088010B400001000190020B40C0010B4000008301C4010B409800002000366E0131
:401BC000001BB7000010008000000B4000030B40F0010B4010030B4004020B4038B5041C00F007FE7F210A4A0A4D12782B68A418A47A8B432343084C2B6023688B430749FF
:401C000009688A18527A1343236000F0F6FD38BD702E0000C0010B40C4010B404804002008B501238B40021C581E002A02D0111C00F0B4FE800808BD064B1A781C235343DE
:401C4000054AD3185B68054ADB7A013B1343044A13607047A5010020202C00000000060200020B4008B5031CC07A19881A7BFFF7D7FF024B80B2186008BDC04614030B4016
:401C8000F0B50124364D87B00A2000F079FB2C60182000F0A5FD334B334F9C466246334B334E136000233B6006333360802331483149324A5B0404600B601460304B0634CD
:401CC000FF341C602F4B033CFF3C1C602E4B013C1C600195151CDE3402970396284B294E294FFF34049005911A68520703D4002C03D0013CF8E7002C01D108223A60002416
:401D000062461460029A0A201460832252001A6000F040FB0A2000F029FB039B01221C60049B80211C60059B49041C6050232B60164B1A60019B164A1C6013680B43136084
:401D400002233360E223FF33124A1268520702D0013B002BF8D1104B3B6007B0F0BDC04680010B40B0020B40B4020B400101010088020B4080020B4084020B40F0010B4067
:401D8000F0000B40F8000B4040030B408C010B4000020B4000000B400103000008B5044A044B91680B439360FFF76AFF08BDC0463403002080000100F8B5041C077E857EB8
:401DC00000F017FD0F22BA40266807213368A94093430422BA406468134322688A432260336000F00AFDF8BD1C2238B5031C101C5343114D48435C59EB1820189B8A0F4CE5
:401E000020605B0715D518235B4259430C4B411819600B888D785A430A4BD21822602068FFF7CAFF2368013D1C332360002DF6D101E0FFF7C1FF38BD202C00004C04002025
:401E4000A8010020202D0000F8B51C24134D144F2B78144E6343FB185868002333702A78317862430A334B43BA189268D3180E4A1360FFF7B3FE2B780C485C433C19A38A5C
:401E80005B0700D40A4800F033F928783178C0B2C9B2FFF7A9FFFFF781FFF8BDA5010020202C0000B00100204804002059290000192900000F2238B50168857E041C007E44
:401EC0000B68824093430B6000F093FC0722AA4061680B6893430622AA4013430B6000F08CFC0122607EA16882400B6893430B6038BD000070B5114D2B78012B1DD1104B6D
:401F0000104C1B689B8A5B0712D50F4B1B681A889E781C2353430D4A9B1823602068FFF7C9FF2368013E1C332360002EF6D102E02068FFF7BFFF00232B7070BDB4010020A8
:401F4000AC0100204C040020A8010020202D0000F8B51C24231C071C43430D4EFFB2F3185D68FFF7C7FF0B4B1F701A7854430A4AA159116019787F23084A90689843031C5D
:401F8000281C0B439360FFF76DFEFFF755FEF8BD202C0000A50100204C04002034030020F7B51C244443164F00913C196368154D01936B461B78061C2B700A232A7853437F
:401FC000A268D318104A1360FFF7C2FF0198FFF705FE0E4B301C00991C60FFF705FF1C210B4B0C481A782B784A43D2599B00D318094A13600122094B1A7000F079F8F7BDEC
:40200000202C0000B001002048040020AC010020A5010020ED280000A8010020B40100201C2238B5031C101C5343114D48435C59EB1820189B8A0F4C20605B0715D5182365
:402040005B4259430C4B411819600B888D785A430A4BD21822602068FFF72CFF2368013D1C332360002DF6D101E0FFF723FF38BD202C00004C040020A8010020202D000010
:402080000223044940000A689A43D2B2034013430B60704700030440044B1A68002AFBDB034A0002104318607047C0460000014041000080034B1A68002AFBDB024A1A6059
:4020C0007047C046000001404100004010B5041C00F08FFB0449054A0B68A405134023430B6000F08AFB10BD08E400E0FFFF3FFF10B58024054BE4001C60054B9866032052
:40210000FFF7E4FF034B1C6010BDC04680E100E00000002000E100E082B06A460C4B0D4900930D4B01930D4B1A600D4A1160C0461A68120F0F2A02D11868C0B205E01A6851
:402140000020120F0A2A00D0186802B07047C046B6E9000016000080B801002008001040040010400A4B0B4A0B491A600B4A1160C0461A68120F0F2A02D11868C0B205E0A7
:402180001A680020120F0A2A00D018687047C04608001040B6E80000150000800400104082B06A460C4B0D4900930D4B01930D4B1A600D4A1160C0461A68120F0F2A02D1DF
:4021C0001868C0B205E01A680020120F0A2A00D0186802B07047C046B6EA000017000080B80100200800104004001040F0B50025A7B0029503957F2853D8A94251D00190D7
:40220000802206A800F088FC284B04AF04937F23274C7B60274E284B27603360C04623681B0F0F2B02D12568EDB204E023681B0F0A2B00D025680295029B002B33D100F0B9
:40224000D8FA051CFFF768FF0390039B002B02D1FFF788FF0290029B002B18D1174A01990492049A0804164910430490104A27603160C0462168090F0F2902D11368DBB272
:4022800004E01168090F0A2900D013680293039B002B02D1FFF784FF0390281C00F0ADFA01E004230293029827B0F0BDB6D70000080010400400104004000080B6D800000D
:4022C0000500008010B5041C00F093FA102C04D803210C4A13688B430FE0202C05D80321084A13688B43023906E0302C06D80321044A13688B4301390B43136000F07DFACD
:4023000010BDC04630001040024A034B11680B401360704700000740FFFFFFBF024B18684000C00F7047C04600000740024B8000C3181868196070474000002038B5041C1A
:402340000D1C00F056FAA308074A9B009B180322144094400634A240A540196891432943196000F04AFA38BD00E400E01F2318401E3B8340181C014B1860704700E100E00F
:402380001F2318401E3B8340181C014B1860704780E100E01F2318401E3B8340181C014B1860704780E200E0034A044913689BB20B4313607047C0460CED00E00400FA0514
:4023C00010B5041C8022074B1202944205D9586800F006FA044BE418F4E79868604300F0FFF910BD9C0000200080FFFF37B500F091F9002847D000F0FCF9234A234B041C4F
:402400001B681168072213409B0018331A1C0B079B0FDA401E48131C01681E4A114080220D1C1D49D20159438918C90B4A1E2A43111C192B02D8194A131C0EE0184D194AFE
:402440009A18EB181A3B1D78A02312785B031943AB18FF2B00D9FF239B050B43124D03602B6830200193FFF72DFF80210F4AC905136814200B431360FFF7A2FF019B201CDE
:402480002B6000F0BAF937BD28000340080F03400800074000F800C040420F000000D43F712E0000CDF1FF0F3000104000000740F7B50423021C9A43182A06D00C23021C25
:4024C0009A43202A01D0302842D1041C00F091F900270190FFF722FFB84202D0FFF714FF013707267F201B4D1B4A2B681B49B3432B601B4BE3181B78DBB21360194A136820
:40250000B3431360184A0B68A21812788343024013430B604D3800F063F9182C11D9231C2A681C3B9B08B2433340134332202B6000F056F9183C2868A4083440B04304436E
:402540002C60012F01D1FFF751FF019800F055F9F7BDC046080F03400C0F0340180F0340CDF1FF0F100F0340B4F1FF0F08B5034B1B7B584300F034F908BDC0469C00002013
:4025800008B500F036F90421034A13688B43136030BF00F032F908BD10ED00E008B500F028F90421064B074A1B889BB21360064A13680B43136030BF00F01FF908BDC0461F
:4025C00052F1FF0F0400034010ED00E0074A084B11680B40802149000B431360054A064B11680B4005490B431360704734000340FFF0FFFF18000340F0F0FFFF080900007B
:40260000054A064B11680B401360054A054B11680B4013607047C04634000340FFF0FFFF180003400F0F0000F7B580242C4B64001A682C4B1A401123A2424ED12A4A1468AE
:402640002A4A944249D1041C294A643C944244D8002942D0274B284D1A681F1C002A35D02A680723002A38DA244D0A332A68002A33D053335843224B0C1CC018214900F076
:402680008DF9214A061E214B964211D9FA212A6889001D68019200F081F9061C0198A90A684300F07BF9282100F078F9704309E0196828684843890A00F070F914497043C4
:4026C00000F06CF9002320603B6006E00F4A1268920A2A6001221A600723181CFEBDC046340003400F0F000018000340080900001C841E00D00100201C000340200003403A
:4027000071020000C409000060D10000AC000020409C0000014B1868C00F7047000007400022014B1A60704738000340014A024B1A6070476588EDAC38000340034A80B284
:4027400013681B0C1B0418431060704740000340014B186880B2704740000340014B18687047C0463C0003400121024A13680B4313607047440003400121024A13688B43B4
:40278000136070474C0003400121024A13680B43136070474C00034010B5041C00F029F80449054A0B68A405134023430B6000F024F810BD04E400E0FFFF3FFF10B5402498
:4027C000044B1C60044B98650320FFF7E5FF034B1C6010BD80E100E00000002000E100E00230800803D001300238FCD1C046C0467047EFF3108072B6704780F31088704771
:402800000D4B0E4819780E4B00681A681C234B430C4992B2CB185B68198801238B40013B09499A4203D20B785B001A5202E00A78520013527047C046A501002048040020E7
:40284000D0000B40202C0000702E00001C2370B51E4D1F492A781F4C5A438A1850682A7826785A438A18927D013AB24218D922780132D2B222702A78267853430A227243D0
:40288000CB189B689B18144A1360FFF7A7F928782178C0B2C9B2FFF7A7FAFFF7F1F913E0002323700D4B0E4A98680E49127801409960012A02D1FFF75BF805E00A4A024045
:4028C0009A60DA880132DA8070BDC046A5010020202C0000B00100204804002034030020A4010020FFFFFEFF7FFFFEFF832208B5064B52001A60FFF783FF054BDA88996831
:402900000132DA80034A0A409A6008BDF0000B40340300207FFFFEFF10B50B4B0B491A780B4B1C781C235A43634354588322E418084B52001A60FFF763FF201CFFF7BAFA90
:40294000FFF784FF10BDC046A5010020202C0000B0010020F0000B40832208B5074B52001A60FFF74DFF064B1878064BC0B21978C9B2FFF755FBFFF769FF08BDF0000B40D7
:40298000A5010020B001002002B4714649084900095C49008E4402BC7047C046002243088B4274D303098B425FD3030A8B4244D3030B8B4228D3030C8B420DD3FF22090243
:4029C00012BA030C8B4202D31212090265D0030B8B4219D300E0090AC30B8B4201D3CB03C01A5241830B8B4201D38B03C01A5241430B8B4201D34B03C01A5241030B8B42E3
:402A000001D30B03C01A5241C30A8B4201D3CB02C01A5241830A8B4201D38B02C01A5241430A8B4201D34B02C01A5241030A8B4201D30B02C01A5241CDD2C3098B4201D39B
:402A4000CB01C01A524183098B4201D38B01C01A524143098B4201D34B01C01A524103098B4201D30B01C01A5241C3088B4201D3CB00C01A524183088B4201D38B00C01AF6
:402A8000524143088B4201D34B00C01A5241411A00D20146524110467047FFE701B5002000F00CF802BDC0460029F7D003B5FFF775FF0EBC4243891A1847C0467047C04630
:402AC000014B18687047C046100100200E4B70B500251E1C0D4CE41AA410A54204D0AB00F35898470135F8E700F0D0F9084B00251E1C084CE41AA410A54204D0AB00F3586D
:402B000098470135F8E770BD982E0000982E0000982E0000A02E0000002310B5934203D0CC5CC4540133F9E710BD031C8218934202D019700133FAE77047000000000000EE
:402B4000010203040506070800010203FA00FA00FA00FA00FA00FA00FA00FA00FA005000500050005000500050005000500050005000500050005000500050005000500011
:402B800050000000202020202020202020000C00640028280F031E6405080000001010005000282805010F640A040000900110005000282805010F640A0400002C011000F8
:402BC0003200191905010F64050400002C0110003200191905010F64050400002C011000C80064280F031E640A08000000101000640028280F031E641408000000101000F1
:402C0000640028280F031E641408000000101000640028280F031E6414080000001000001C2D000056030020E6030020000000009B0100200500010006010000902D00004B
:402C400066030020F003002000000000990100200900010006010000AC2D000076030020FA03002000000000970100200900010006010000C82D00008603002004040020CF
:402C800000000000950100200900010006010000E42D0000960300200E04002000000000930100200900010006010000002E0000A6030020180400200000000091010020A7
:402CC00001000100060100001C2E0000B603002022040020000000008F0100200100010006010000382E0000C60300202C040020000000008D010020010001000601000053
:402D0000542E0000D603002036040020000000008B010020010001000601000000000401000002400800044000000440040004400F00000001000000000000000000024098
:402D400008000440000004400400044000000F001000000010040C00000002400800044000000440040004400000000F4000000018061200000102400801044000010440CE
:402D800004010440000F00000400000008020600000002400800044000000440040004400F00000001000000000000000000024008000440000004400400044000000F0054
:402DC0001000000010040C00000002400800044000000440040004400000000F400000001806120000010240080104400001044004010440000F00000400000008020600C9
:402E000000000240080004400000044004000440F00000000200000004010300000002400800044000000440040004400000F0002000000014050F0000000240080004409E
:402E40000000044004000440000000F0800000001C0715000001024008010440000104400401044000F00000080000000C03090000EEDBC9B9AA9B8E82766B60564D443BED
:402E8000332C241D17100A0443000000F8B5C046F8BC08BC9E4670472D01000039100000F8B5C046F8BC08BC9E46704705010000C02E000088000020900000003803000090
:402EC0000000000001010000000105004006000002000004010000000000E02EC05D00001800000000366E0100000000000000000000000000000000000000000000000095
:402F00000000000000000000882E000000000000000000000000000000000000000000000000000000000000000000000000000000000000000000000000000000000000DB
:402F40000000000000000000B00000200000000000000000000000000000000000000000000000000000000000000000000000000000000000000000000000000000000081
:402F80000000000000000000000000000000000000000000000000000000000000000000000000000000000000000000000000000000000000000000000000000000000011
:402FC00000000000000000000000000000000000000000000000000000000000000000000000000000000000000000000000000000000000000000000000000000000000D1
:403000000000000000000000000000000000000000000000000000000000000000000000000000000000000000000000000000000000000000000000000000000000000090
:403040000000000000000000000000000000000000000000000000000000000000000000000000000000000000000000000000000000000000000000000000000000000050
:403F4000000000000000000000000000000000000000000000000000000000000000000000000000000000000000000000000000000000000000000000000000A60000009B
:403F80000000000000000000000000000000000000000000000000000000000000000000000000000000000000000000000000000000000000000000000000000000000001
:403FC00000000000000000000000000000000000000000000000000000000000000000000000000000000000000000000000000000000000000000000000000000000000C1
:0200000490303A
:02000000870176
:0200000490402A
:1000000000000000000000000000000000000000F0
:0200000490501A
:0C0000000002191111A90001191F98AA93
:0200000490600A
:0100000001FE
:00000001FF